:1000000019C033C032C031C0B2C32FC02EC024C10A
:100010005FC12BC02AC029C028C027C0A9C0E2C028
:1000200024C023C022C021C020C01FC01EC01DC0CC
:100030001CC01BC011241FBECFEFD2E0DEBFCDBF5E
:1000400011E0A0E0B1E0EEECFFE002C005900D92FF
:10005000A830B107D9F711E0A8E0B1E001C01D92C6
:10006000AE33B107E1F7B8D6B0C7CACFBF92CF92CF
:10007000DF92EF92FF920F931F93CF93DF93082F9E
:100080007B01409880ED97E0FC013197F1F7409AB1
:10009000FC013197F1F74098FC013197F1F7FC0131
:1000A0003197F1F7409A0197F1F710E081E0C82EFF
:1000B000D12CC0EDD7E0BB24B3941AC0812FF70137
:1000C0000995382F20E098B1832F8C2581709E7F71
:1000D000892B88B9CE010197F1F788B18B2588B9B2
:1000E000CE010197F1F736952F5F283061F71F5F3A
:1000F000101720F3409ADF91CF911F910F91FF903D
:10010000EF90DF90CF90BF900895809115018F7090
:100110000895389A27B1217E27B928B12F6128B9CF
:1001200022E0209368002EE120936C0010926E0074
:1001300014BC23E025BD16BC17BC18BC1092B60039
:10014000109270001092B00024E02093B100109241
:10015000B2001092B3001092B400789420EF209374
:1001600015011092180190931701809316010895BC
:100170001F920F920FB60F9211248F939F9380912D
:10018000180180FF19C09091150186B1880F880F62
:10019000880F80719F7E892B8093150180916C0060
:1001A000826080936C00809118018E7F809318018B
:1001B00086B5865087BD0FC080916E008D7F80937D
:1001C0006E00809115018E7F8093150180916C00E7
:1001D000826080936C009F918F910F900FBE0F9063
:1001E0001F9018951F920F920FB60F9211248F93A4
:1001F0009F938091180181FF19C09091150186B1DC
:10020000880F880F880F80729F7D892B809315013E
:1002100080916C00846080936C00809118018D7FC8
:100220008093180186B5865088BD0FC080916E00FE
:100230008B7F80936E00809115018D7F80931501D7
:1002400080916C00846080936C009F918F910F90DF
:100250000FBE0F901F9018951F920F920FB60F921E
:1002600011248F939F938091180182FF1BC090915E
:10027000150186B1880F880F880F80749F7B892BAA
:100280008093150180916C00886080936C00809150
:1002900018018B7F809318018091B2008650809363
:1002A000B3000FC0809170008D7F809370008091AB
:1002B00015018B7F8093150180916C00886080937D
:1002C0006C009F918F910F900FBE0F901F9018950B
:1002D0001F920F920FB60F9211248F939F938091CC
:1002E000180183FF1BC09091150186B1880F880FFC
:1002F000880F80789F77892B8093150180916C00FF
:10030000806180936C0080911801877F8093180131
:100310008091B20086508093B4000FC0809170002D
:100320008B7F8093700080911501877F80931501EA
:1003300080916C00806180936C009F918F910F90F1
:100340000FBE0F901F9018951092190110921A016C
:1003500010921B0108950F931F93382F80911C0159
:1003600090911D01282F80911C0190911D01313029
:1003700069F0313020F0323069F100E072C0092FAD
:100380000095007F20952F70022B6BC030E02095E8
:100390003095492F50E090FD02C068E001C060E058
:1003A000C90180719070959587959595879520786E
:1003B0003070220F232F221F330B082F022B409562
:1003C0005095487050705595479555954795042B15
:1003D000062B47C080911901209119014091190104
:1003E0001091190100911A0160911A01E0911A010E
:1003F000A0911A0100711870012B90E0807190702B
:10040000B4E095958795BA95E1F7082B30E0207810
:100410003070F6E035952795FA95E1F7022B50E01C
:1004200041705070440F551F440F551F042B70E04E
:10043000607870707595679575956795062BF0E0F7
:10044000E170F07026E0EE0FFF1F2A95E1F70E2B0A
:10045000B0E0A870B07094E0AA0FBB1F9A95E1F7C6
:100460000A2B802F1F910F910895342F613009F4CA
:1004700050C0613020F0623009F0CCC068C08130DB
:1004800009F1813030F0823009F1833009F0C2C0C7
:1004900024C040911A01232F30E0C901817090706F
:1004A000B4E0880F991FBA95E1F7482B40931A01E1
:1004B00080911A0120713070A3E0220F331FAA959A
:1004C000E1F723C080911901307F03C080911901A9
:1004D0003F70832B80931901089540911A01232FB7
:1004E00030E0C90188709070F3E095958795FA9592
:1004F000E1F7482B40931A0180911A01207830705F
:10050000E4E035952795EA95E1F7822B80931A016F
:100510000895882321F0833009F07CC00CC020911D
:100520001A01842F90E08C70907073E0880F991FEF
:100530007A95E1F708C020911A01842F90E083702A
:100540009070880F991F282B20931A0108958130ED
:10055000D9F0813030F0823079F1833009F05AC01F
:1005600044C040911B01232F30E0C901817090707D
:10057000880F991F482B40931B0180911B01247009
:100580003070220F331F2DC090911B01842F881FC4
:100590008827881F892B80931B0120911B01842FA2
:1005A00090E08072907034E0959587953A95E1F7E8
:1005B000282B20931B01089540911B01232F30E02D
:1005C000C90180749070B4E095958795BA95E1F76C
:1005D000482B40931B0180911B0120713070359591
:1005E0002795822B80931B01089540911B01232F97
:1005F00030E0C9018270907095958795482B4093A3
:100600001B0180911B012870307035952795822B36
:1006100080931B01089515B88FEF84B91BB88AB970
:1006200087B18F7987B988B1806688B910927E00CA
:1006300080E280937C0086E880937A0085E392E0F4
:1006400068DDECE6F0E08081806280830895CF93DE
:10065000DF9360E050E020E030E077E2A0EABFE026
:10066000CFEFDFEF70937C0080917A0080648093FD
:100670007A0080917A0084FFFCCF80917A008061BB
:1006800080937A0080917900422F90E08170907081
:10069000022E02C0880F991F0A94E2F7682BCD0141
:1006A0000197F1F770937C0080917A0080648093C9
:1006B0007A0080917A0084FFFCCF80917A0080617B
:1006C00080937A008091790090E08170907002C0F0
:1006D000880F991F4A95E2F7582BCD010197F1F742
:1006E000109214010EC0E0911401F0E0EE0FFF1F14
:1006F000E25EFE4FD183C083809114018F5F8093AF
:10070000140180911401803170F32F5F3F4F283026
:10071000310509F0A7CF852F90E090931D018093BC
:100720001C0180911C0190911D01982F88279093A6
:100730001D0180931C0120911C0130911D01862F09
:1007400090E0822B932B90931D0180931C0180914C
:100750001C0190911D01809585B980911C0190919B
:100760001D01892F80958BB9DF91CF9108951F923C
:100770000F920FB60F9211248F929F92AF92BF9259
:10078000CF92DF92EF92FF920F931F932F933F939D
:100790004F935F936F937F938F939F93AF93BF9389
:1007A000CF93DF93EF93FF9380910801882309F0A3
:1007B00058C080916C0085FF4FC035994DC085EAC7
:1007C00095EA90931D0180931C0180911C019091EA
:1007D0001D01809585B980911C0190911D01892F83
:1007E00080958BB980910901813029F020E030E0BB
:1007F00040E25EE409C01092090113BE4BC1CA0178
:100800000197F1F72F5F3F4F359B04C0283C31051E
:1008100020F420C0293C310591F78FEF9FEF909392
:100820001D0180931C0180911C0190911D018095F8
:1008300085B980911C0190911D01892F80958BB9FC
:10084000359BFECF80E29EE40197F1F781E0809333
:10085000090120C1FCDE1EC180910901813009F42B
:1008600019C150916C0090916C004091150126B116
:100870006091150186B1309115018695832B809585
:100880008F704295407F220F220F220F262742238E
:10089000842B990F990F990F907F56955F70952B28
:1008A0008923982F92959F70A92EBB24C3E0D0E096
:1008B000C82EDD2472E0872E912C61E0E62EF12C0B
:1008C0000EEF1C2FC6010C2E02C0959587950A9439
:1008D000E2F780FF53C08091150197010C2E02C0F2
:1008E000220F331F0A94E2F7822B80931501FE0139
:1008F000E25FFE4F008340916C00C4010C2E02C0E9
:10090000880F991F0A94E2F78095842380936C00E6
:1009100080911801282B20931801C13091F0C2302A
:100920001CF4CC2339F0B0C0C230A1F0C33009F0C0
:10093000ABC019C086B5885387BD80916E008260B8
:1009400006C086B5885388BD80916E008460809310
:100950006E009AC08091B20088538093B30080915A
:100960007000826008C08091B20088538093B40008
:100970008091700084608093700086C0C5010C2E49
:1009800002C0959587950A94E2F780FF7DC0FE012D
:10099000E25FFE4F808187FD39C0DE01A65FBE4F5A
:1009A0005C91208186B140812770B70102C0660F3B
:1009B000771F2A95E2F79B0120952523869590E0E5
:1009C0000C2E02C0959587950A94E2F7817090707D
:1009D000477002C0880F991F4A95E2F7282B2C9385
:1009E00080818770873091F460814C91772767FD13
:1009F00070956F77707053E0759567955A95E1F72C
:100A0000E0911601F09117018C2F0995FE01E25F2C
:100A1000FE4F80818F5F808320916C00C4010C2E7B
:100A200002C0880F991F0A94E2F780958223809371
:100A30006C0020911801C7010C2E02C0880F991F6D
:100A40000A94E2F7282B20931801113071F012302C
:100A50001CF4112331F018C0123059F01330A1F4F6
:100A60000EC086B5885387BD0FC086B5885388BD34
:100A70000BC08091B20088538093B30005C0809171
:100A8000B20088538093B40021977FEFCF3FD70700
:100A900009F017CFFF91EF91DF91CF91BF91AF9107
:100AA0009F918F917F916F915F914F913F912F9186
:100AB0001F910F91FF90EF90DF90CF90BF90AF907C
:100AC0009F908F900F900FBE0F901F90189580628F
:100AD00080937C0080917A00806480937A0080917A
:100AE0007A0084FFFCCF80917A00806180937A0045
:100AF0008091790008952F923F924F925F926F926A
:100B00007F928F929F92AF92BF92CF92DF92EF929D
:100B1000FF920F931F93DF93CF93CDB7DEB7289744
:100B20000FB6F894DEBF0FBECDBF40911C015091AF
:100B30001D0160911C0170911D0119821A82209182
:100B40001B018091190190911B01869586958695D0
:100B50008E719170892B2295207F2072822B8B833E
:100B600020911A0150E04095509580911A01220F72
:100B700020728170282BCA01880F991F8E71282B33
:100B80002C8390911A0180911A0186958170907240
:100B9000892BE3E055954795EA95E1F74E71842B53
:100BA0008D8380911A01472F50E0409550952091F8
:100BB0001A0126952695217086958072282BCA01E8
:100BC000880F991F8E71282B2E8390911A01809186
:100BD0001A01869586958695817096959695907260
:100BE000892B63E0559547956A95E1F74E71842B03
:100BF0008F8380911B019091190120911B01880F17
:100C0000880F8072990F9E71892B269526952170E9
:100C1000822B888753E0C52ED12CCC0EDD1EEE240E
:100C2000FF241E010894211C311C6CC0C2010A2E35
:100C300002C0959587950A94E2F7B3010A2E02C087
:100C4000759567950A94E2F794010A2E02C03595CE
:100C500027950A94E2F7562F5170482F4170540F90
:100C6000422F4170540F95958795482F4170540F2E
:100C7000959587958170580FCB019595879595959A
:100C800087958170580F35952795822F8170580F61
:100C9000359527952170520F61FF0AC0552311F435
:100CA00060E012C0852F90E0019726E030E005C09B
:100CB000852F90E0019724E030E002C0359527951C
:100CC0008A95E2F7622F6170862F90E09D012A29B4
:100CD0003B2902C0880F991F2A95E2F7E82B11964D
:100CE000A430B10509F0A2CF020D131DD801EC9379
:100CF0000894E11CF11C0894C11CD11CB4E0EB1653
:100D0000F104F1F0F6018081482E55248181682E8E
:100D100077248281882E99248E2D8695082F10E0C5
:100D2000A1E0AA2EB12CAE20BF20AA0CBB1CAA0C9D
:100D3000BB1CF101E00FF11FE081A0E0B0E076CF35
:100D40008A8190E090931D0180931C0180911C0189
:100D500090911D01982F882790931D0180931C016D
:100D600020911C0130911D01898190E0822B932BF1
:100D700090931D0180931C0180911C0190911D0195
:100D80008095909590931D0180931C0180911C018A
:100D900090911D01809585B980911C0190911D0154
:100DA000892F80958BB928960FB6F894DEBF0FBEB9
:100DB000CDBFCF91DF911F910F91FF90EF90DF900A
:100DC000CF90BF90AF909F908F907F906F905F90EB
:100DD0004F903F902F900895AF92BF92CF92DF92A5
:100DE000EF92FF920F931F93CF93DF9314DC35990B
:100DF00003C081E0809308012ADC809108018823E8
:100E000029F080E49CE9A0E0B0E004C080E69AEE1E
:100E1000A0E0B0E08093030190930401A09305014A
:100E2000B09306012FE0A22ECC24CA94DC2C95E0CE
:100E3000B92EC8ECD0E01AC0D0921D01C0921C019E
:100E400080911C0190911D01809585B980911C01B4
:100E500090911D01892F80958BB9B3BE889588EE3E
:100E600093E0FE013197F1F70197D9F780910901DD
:100E7000813011F31092090113BE109219011092E2
:100E80001A0110921B01E0900301F09004010091FF
:100E900005011091060120E030E040E050E008C07C
:100EA000809115018F7049F42F5F3F4F4F4F5F4F77
:100EB0002E153F054007510798F383E06BEA71E078
:100EC000D5D8809115018F70E1F715DE809108016A
:100ED000882361F680911C0190911D018F5F9F4FC7
:100EE00031F4809112018F5F809312012AC0109219
:100EF0001201109214011BC0E0911401F0E0EE0FFA
:100F0000FF1FE25EFE4F2081318180911C01909194
:100F10001D012817390731F4809113018F5F8093E9
:100F2000130109C0809114018F5F80931401809197
:100F30001401803108F380911401803111F4109272
:100F4000130180911201893121F0809113018233C4
:100F500031F4109212011092130179DB87CFA09225
:100F6000140118C0A0911401B0E0E0911401F0E068
:100F7000EE0FFF1FE45EFE4F80819181AA0FBB1F21
:100F8000A25EBE4F11969C938E9380911401815066
:100F90008093140180911401882321F780911C0112
:100FA00090911D0190931F0180931E015FCF80914E
:100FB0001C0190911D01809585B980911C01909133
:0E0FC0001D01892F80958BB90895F894FFCFFD
:080FCE00000604409C00000035
:00000001FF
